{
  "abi": [
    {
      "inputs": [],
      "name": "ABCD",
      "outputs": [
        {
          "internalType": "int256",
          "name": "y",
          "type": "int256"
        }
      ],
      "stateMutability": "view",
      "type": "function"
    },
    {
      "inputs": [
        {
          "internalType": "bool",
          "name": "b",
          "type": "bool"
        }
      ],
      "name": "SetNext",
      "outputs": [],
      "stateMutability": "nonpayable",
      "type": "function"
    }
  ],
  "bytecode": {
    "object": "0x608060405234801561001057600080fd5b5061030f806100206000396000f3fe608060405234801561001057600080fd5b50600436106100365760003560e01c8063df5b72271461003b578063e88184ca14610050575b600080fd5b61004e6100493660046101be565b61006a565b005b610058610097565b60405190815260200160405180910390f35b80610076576000610079565b60015b6000546100879060026101fd565b6100919190610282565b60005550565b60008054601e036100b0576100aa6102c3565b50600390565b6000546032036100c8576100c26102c3565b50600590565b6000546046036100e0576100da6102c3565b50600790565b600054605a036100f8576100f26102c3565b50600990565b600054606e036101105761010a6102c3565b50600b90565b600054608203610128576101226102c3565b50600d90565b6000546096036101405761013a6102c3565b50600f90565b60005460aa03610158576101526102c3565b50601190565b60005460be036101705761016a6102c3565b50601390565b60005460d203610188576101826102c3565b50601590565b60005460e6036101a05761019a6102c3565b50601790565b60005460fa036101b8576101b26102c3565b50601990565b50600090565b6000602082840312156101d057600080fd5b813580151581146101e057600080fd5b9392505050565b634e487b7160e01b600052601160045260246000fd5b60006001600160ff1b0381841382841380821686840486111615610223576102236101e7565b600160ff1b6000871282811687830589121615610242576102426101e7565b6000871292508782058712848416161561025e5761025e6101e7565b87850587128184161615610274576102746101e7565b505050929093029392505050565b600080821280156001600160ff1b03849003851316156102a4576102a46101e7565b600160ff1b83900384128116156102bd576102bd6101e7565b50500190565b634e487b7160e01b600052600160045260246000fdfea2646970667358221220305228eb622814e45e19e7f9805025d83e14ec694dde980cb7b4fc268d9594a164736f6c634300080d0033",
    "linkReferences": {}
  },
  "methodIdentifiers": {
    "ABCD()": "e88184ca",
    "SetNext(bool)": "df5b7227"
  },
  "id": 0
}