{
  "abi": [
    {
      "inputs": [],
      "name": "Bar",
      "outputs": [
        {
          "internalType": "int256",
          "name": "",
          "type": "int256"
        }
      ],
      "stateMutability": "view",
      "type": "function"
    },
    {
      "inputs": [
        {
          "internalType": "bool",
          "name": "b",
          "type": "bool"
        }
      ],
      "name": "SetNext",
      "outputs": [],
      "stateMutability": "nonpayable",
      "type": "function"
    }
  ],
  "bytecode": {
    "object": "0x608060405234801561001057600080fd5b506102f7806100206000396000f3fe608060405234801561001057600080fd5b50600436106100365760003560e01c8063b0a378b01461003b578063df5b722714610055575b600080fd5b61004361006a565b60405190815260200160405180910390f35b6100686100633660046101a6565b610179565b005b60008054600a036100835761007d6101cf565b50600190565b600054601e0361009b576100956101cf565b50600390565b6000546032036100b3576100ad6101cf565b50600590565b6000546046036100cb576100c56101cf565b50600790565b600054605a036100e3576100dd6101cf565b50600990565b600054606e036100fb576100f56101cf565b50600b90565b6000546082036101135761010d6101cf565b50600d90565b60005460960361012b576101256101cf565b50600f90565b60005460aa036101435761013d6101cf565b50601190565b60005460be0361015b576101556101cf565b50601390565b60005460d2036101735761016d6101cf565b50601590565b50600090565b80610185576000610188565b60015b6000546101969060026101fb565b6101a09190610280565b60005550565b6000602082840312156101b857600080fd5b813580151581146101c857600080fd5b9392505050565b634e487b7160e01b600052600160045260246000fd5b634e487b7160e01b600052601160045260246000fd5b60006001600160ff1b0381841382841380821686840486111615610221576102216101e5565b600160ff1b6000871282811687830589121615610240576102406101e5565b6000871292508782058712848416161561025c5761025c6101e5565b87850587128184161615610272576102726101e5565b505050929093029392505050565b600080821280156001600160ff1b03849003851316156102a2576102a26101e5565b600160ff1b83900384128116156102bb576102bb6101e5565b5050019056fea264697066735822122005a86c72700d9ccb2087302e6d531de13a3fad19a20b353480d831ef4d2b15e764736f6c634300080d0033",
    "linkReferences": {}
  },
  "methodIdentifiers": {
    "Bar()": "b0a378b0",
    "SetNext(bool)": "df5b7227"
  },
  "id": 2
}