{
  "abi": [
    {
      "inputs": [],
      "name": "AAB",
      "outputs": [
        {
          "internalType": "uint256",
          "name": "",
          "type": "uint256"
        }
      ],
      "stateMutability": "view",
      "type": "function"
    },
    {
      "inputs": [
        {
          "internalType": "bool",
          "name": "b",
          "type": "bool"
        }
      ],
      "name": "SetNext",
      "outputs": [],
      "stateMutability": "nonpayable",
      "type": "function"
    }
  ],
  "bytecode": {
    "object": "0x608060405234801561001057600080fd5b50610266806100206000396000f3fe608060405234801561001057600080fd5b50600436106100365760003560e01c806343c10ff11461003b578063df5b722714610055575b600080fd5b61004361006a565b60405190815260200160405180910390f35b6100686100633660046101a4565b610173565b005b60008054600a036100835761007d6101cd565b50600190565b600054601e0361009b576100956101cd565b50600390565b6000546032036100b3576100ad6101cd565b50600590565b6000546046036100cb576100c56101cd565b50600790565b600054605a036100e3576100dd6101cd565b50600990565b600054606e036100fb576100f56101cd565b50600b90565b6000546082036101135761010d6101cd565b50600d90565b60005460960361012b576101256101cd565b50600f90565b60005460aa036101435761013d6101cd565b50601190565b60005460be0361015b576101556101cd565b50601390565b60005460d20361016d576101556101cd565b50600090565b8061017f576000610182565b60015b60ff16600054600261019491906101f9565b61019e9190610218565b60005550565b6000602082840312156101b657600080fd5b813580151581146101c657600080fd5b9392505050565b634e487b7160e01b600052600160045260246000fd5b634e487b7160e01b600052601160045260246000fd5b6000816000190483118215151615610213576102136101e3565b500290565b6000821982111561022b5761022b6101e3565b50019056fea26469706673582212207a46352c6f97edfe01e7d632555c39f22902f3548793b50890640b22285151d564736f6c634300080d0033",
    "linkReferences": {}
  },
  "methodIdentifiers": {
    "AAB()": "43c10ff1",
    "SetNext(bool)": "df5b7227"
  },
  "id": 1
}