{
  "src/Bar.sol": {
    "Bar": {
      "abi": [
        {
          "inputs": [],
          "name": "AAB",
          "outputs": [
            {
              "internalType": "uint256",
              "name": "",
              "type": "uint256"
            }
          ],
          "stateMutability": "view",
          "type": "function"
        },
        {
          "inputs": [
            {
              "internalType": "bool",
              "name": "b",
              "type": "bool"
            }
          ],
          "name": "SetNext",
          "outputs": [],
          "stateMutability": "nonpayable",
          "type": "function"
        }
      ],
      "userdoc": {},
      "devdoc": {},
      "evm": {
        "bytecode": {
          "object": "608060405234801561001057600080fd5b50610266806100206000396000f3fe608060405234801561001057600080fd5b50600436106100365760003560e01c806343c10ff11461003b578063df5b722714610055575b600080fd5b61004361006a565b60405190815260200160405180910390f35b6100686100633660046101a4565b610173565b005b60008054600a036100835761007d6101cd565b50600190565b600054601e0361009b576100956101cd565b50600390565b6000546032036100b3576100ad6101cd565b50600590565b6000546046036100cb576100c56101cd565b50600790565b600054605a036100e3576100dd6101cd565b50600990565b600054606e036100fb576100f56101cd565b50600b90565b6000546082036101135761010d6101cd565b50600d90565b60005460960361012b576101256101cd565b50600f90565b60005460aa036101435761013d6101cd565b50601190565b60005460be0361015b576101556101cd565b50601390565b60005460d20361016d576101556101cd565b50600090565b8061017f576000610182565b60015b60ff16600054600261019491906101f9565b61019e9190610218565b60005550565b6000602082840312156101b657600080fd5b813580151581146101c657600080fd5b9392505050565b634e487b7160e01b600052600160045260246000fd5b634e487b7160e01b600052601160045260246000fd5b6000816000190483118215151615610213576102136101e3565b500290565b6000821982111561022b5761022b6101e3565b50019056fea26469706673582212207a46352c6f97edfe01e7d632555c39f22902f3548793b50890640b22285151d564736f6c634300080d0033",
          "opcodes": "PUSH1 0x80 PUSH1 0x40 MSTORE CALLVALUE DUP1 ISZERO PUSH2 0x10 JUMPI PUSH1 0x0 DUP1 REVERT JUMPDEST POP PUSH2 0x266 DUP1 PUSH2 0x20 PUSH1 0x0 CODECOPY PUSH1 0x0 RETURN INVALID PUSH1 0x80 PUSH1 0x40 MSTORE CALLVALUE DUP1 ISZERO PUSH2 0x10 JUMPI PUSH1 0x0 DUP1 REVERT JUMPDEST POP PUSH1 0x4 CALLDATASIZE LT PUSH2 0x36 JUMPI PUSH1 0x0 CALLDATALOAD PUSH1 0xE0 SHR DUP1 PUSH4 0x43C10FF1 EQ PUSH2 0x3B JUMPI DUP1 PUSH4 0xDF5B7227 EQ PUSH2 0x55 JUMPI JUMPDEST PUSH1 0x0 DUP1 REVERT JUMPDEST PUSH2 0x43 PUSH2 0x6A JUMP JUMPDEST PUSH1 0x40 MLOAD SWAP1 DUP2 MSTORE PUSH1 0x20 ADD PUSH1 0x40 MLOAD DUP1 SWAP2 SUB SWAP1 RETURN JUMPDEST PUSH2 0x68 PUSH2 0x63 CALLDATASIZE PUSH1 0x4 PUSH2 0x1A4 JUMP JUMPDEST PUSH2 0x173 JUMP JUMPDEST STOP JUMPDEST PUSH1 0x0 DUP1 SLOAD PUSH1 0xA SUB PUSH2 0x83 JUMPI PUSH2 0x7D PUSH2 0x1CD JUMP JUMPDEST POP PUSH1 0x1 SWAP1 JUMP JUMPDEST PUSH1 0x0 SLOAD PUSH1 0x1E SUB PUSH2 0x9B JUMPI PUSH2 0x95 PUSH2 0x1CD JUMP JUMPDEST POP PUSH1 0x3 SWAP1 JUMP JUMPDEST PUSH1 0x0 SLOAD PUSH1 0x32 SUB PUSH2 0xB3 JUMPI PUSH2 0xAD PUSH2 0x1CD JUMP JUMPDEST POP PUSH1 0x5 SWAP1 JUMP JUMPDEST PUSH1 0x0 SLOAD PUSH1 0x46 SUB PUSH2 0xCB JUMPI PUSH2 0xC5 PUSH2 0x1CD JUMP JUMPDEST POP PUSH1 0x7 SWAP1 JUMP JUMPDEST PUSH1 0x0 SLOAD PUSH1 0x5A SUB PUSH2 0xE3 JUMPI PUSH2 0xDD PUSH2 0x1CD JUMP JUMPDEST POP PUSH1 0x9 SWAP1 JUMP JUMPDEST PUSH1 0x0 SLOAD PUSH1 0x6E SUB PUSH2 0xFB JUMPI PUSH2 0xF5 PUSH2 0x1CD JUMP JUMPDEST POP PUSH1 0xB SWAP1 JUMP JUMPDEST PUSH1 0x0 SLOAD PUSH1 0x82 SUB PUSH2 0x113 JUMPI PUSH2 0x10D PUSH2 0x1CD JUMP JUMPDEST POP PUSH1 0xD SWAP1 JUMP JUMPDEST PUSH1 0x0 SLOAD PUSH1 0x96 SUB PUSH2 0x12B JUMPI PUSH2 0x125 PUSH2 0x1CD JUMP JUMPDEST POP PUSH1 0xF SWAP1 JUMP JUMPDEST PUSH1 0x0 SLOAD PUSH1 0xAA SUB PUSH2 0x143 JUMPI PUSH2 0x13D PUSH2 0x1CD JUMP JUMPDEST POP PUSH1 0x11 SWAP1 JUMP JUMPDEST PUSH1 0x0 SLOAD PUSH1 0xBE SUB PUSH2 0x15B JUMPI PUSH2 0x155 PUSH2 0x1CD JUMP JUMPDEST POP PUSH1 0x13 SWAP1 JUMP JUMPDEST PUSH1 0x0 SLOAD PUSH1 0xD2 SUB PUSH2 0x16D JUMPI PUSH2 0x155 PUSH2 0x1CD JUMP JUMPDEST POP PUSH1 0x0 SWAP1 JUMP JUMPDEST DUP1 PUSH2 0x17F JUMPI PUSH1 0x0 PUSH2 0x182 JUMP JUMPDEST PUSH1 0x1 JUMPDEST PUSH1 0xFF AND PUSH1 0x0 SLOAD PUSH1 0x2 PUSH2 0x194 SWAP2 SWAP1 PUSH2 0x1F9 JUMP JUMPDEST PUSH2 0x19E SWAP2 SWAP1 PUSH2 0x218 JUMP JUMPDEST PUSH1 0x0 SSTORE POP JUMP JUMPDEST PUSH1 0x0 PUSH1 0x20 DUP3 DUP5 SUB SLT ISZERO PUSH2 0x1B6 JUMPI PUSH1 0x0 DUP1 REVERT JUMPDEST DUP2 CALLDATALOAD DUP1 ISZERO ISZERO DUP2 EQ PUSH2 0x1C6 JUMPI PUSH1 0x0 DUP1 REVERT JUMPDEST SWAP4 SWAP3 POP POP POP JUMP JUMPDEST PUSH4 0x4E487B71 PUSH1 0xE0 SHL PUSH1 0x0 MSTORE PUSH1 0x1 PUSH1 0x4 MSTORE PUSH1 0x24 PUSH1 0x0 REVERT JUMPDEST PUSH4 0x4E487B71 PUSH1 0xE0 SHL PUSH1 0x0 MSTORE PUSH1 0x11 PUSH1 0x4 MSTORE PUSH1 0x24 PUSH1 0x0 REVERT JUMPDEST PUSH1 0x0 DUP2 PUSH1 0x0 NOT DIV DUP4 GT DUP3 ISZERO ISZERO AND ISZERO PUSH2 0x213 JUMPI PUSH2 0x213 PUSH2 0x1E3 JUMP JUMPDEST POP MUL SWAP1 JUMP JUMPDEST PUSH1 0x0 DUP3 NOT DUP3 GT ISZERO PUSH2 0x22B JUMPI PUSH2 0x22B PUSH2 0x1E3 JUMP JUMPDEST POP ADD SWAP1 JUMP INVALID LOG2 PUSH5 0x6970667358 0x22 SLT KECCAK256 PUSH27 0x46352C6F97EDFE01E7D632555C39F22902F3548793B50890640B22 0x28 MLOAD MLOAD 0xD5 PUSH5 0x736F6C6343 STOP ADDMOD 0xD STOP CALLER ",
          "linkReferences": {}
        },
        "methodIdentifiers": {
          "AAB()": "43c10ff1",
          "SetNext(bool)": "df5b7227"
        }
      }
    }
  }
}