{
  "src/Foo.sol": {
    "Foo": {
      "abi": [
        {
          "inputs": [],
          "name": "Bar",
          "outputs": [
            {
              "internalType": "int256",
              "name": "",
              "type": "int256"
            }
          ],
          "stateMutability": "view",
          "type": "function"
        },
        {
          "inputs": [
            {
              "internalType": "bool",
              "name": "b",
              "type": "bool"
            }
          ],
          "name": "SetNext",
          "outputs": [],
          "stateMutability": "nonpayable",
          "type": "function"
        }
      ],
      "userdoc": {},
      "devdoc": {},
      "evm": {
        "bytecode": {
          "object": "608060405234801561001057600080fd5b506102f7806100206000396000f3fe608060405234801561001057600080fd5b50600436106100365760003560e01c8063b0a378b01461003b578063df5b722714610055575b600080fd5b61004361006a565b60405190815260200160405180910390f35b6100686100633660046101a6565b610179565b005b60008054600a036100835761007d6101cf565b50600190565b600054601e0361009b576100956101cf565b50600390565b6000546032036100b3576100ad6101cf565b50600590565b6000546046036100cb576100c56101cf565b50600790565b600054605a036100e3576100dd6101cf565b50600990565b600054606e036100fb576100f56101cf565b50600b90565b6000546082036101135761010d6101cf565b50600d90565b60005460960361012b576101256101cf565b50600f90565b60005460aa036101435761013d6101cf565b50601190565b60005460be0361015b576101556101cf565b50601390565b60005460d2036101735761016d6101cf565b50601590565b50600090565b80610185576000610188565b60015b6000546101969060026101fb565b6101a09190610280565b60005550565b6000602082840312156101b857600080fd5b813580151581146101c857600080fd5b9392505050565b634e487b7160e01b600052600160045260246000fd5b634e487b7160e01b600052601160045260246000fd5b60006001600160ff1b0381841382841380821686840486111615610221576102216101e5565b600160ff1b6000871282811687830589121615610240576102406101e5565b6000871292508782058712848416161561025c5761025c6101e5565b87850587128184161615610272576102726101e5565b505050929093029392505050565b600080821280156001600160ff1b03849003851316156102a2576102a26101e5565b600160ff1b83900384128116156102bb576102bb6101e5565b5050019056fea264697066735822122005a86c72700d9ccb2087302e6d531de13a3fad19a20b353480d831ef4d2b15e764736f6c634300080d0033",
          "opcodes": "PUSH1 0x80 PUSH1 0x40 MSTORE CALLVALUE DUP1 ISZERO PUSH2 0x10 JUMPI PUSH1 0x0 DUP1 REVERT JUMPDEST POP PUSH2 0x2F7 DUP1 PUSH2 0x20 PUSH1 0x0 CODECOPY PUSH1 0x0 RETURN INVALID PUSH1 0x80 PUSH1 0x40 MSTORE CALLVALUE DUP1 ISZERO PUSH2 0x10 JUMPI PUSH1 0x0 DUP1 REVERT JUMPDEST POP PUSH1 0x4 CALLDATASIZE LT PUSH2 0x36 JUMPI PUSH1 0x0 CALLDATALOAD PUSH1 0xE0 SHR DUP1 PUSH4 0xB0A378B0 EQ PUSH2 0x3B JUMPI DUP1 PUSH4 0xDF5B7227 EQ PUSH2 0x55 JUMPI JUMPDEST PUSH1 0x0 DUP1 REVERT JUMPDEST PUSH2 0x43 PUSH2 0x6A JUMP JUMPDEST PUSH1 0x40 MLOAD SWAP1 DUP2 MSTORE PUSH1 0x20 ADD PUSH1 0x40 MLOAD DUP1 SWAP2 SUB SWAP1 RETURN JUMPDEST PUSH2 0x68 PUSH2 0x63 CALLDATASIZE PUSH1 0x4 PUSH2 0x1A6 JUMP JUMPDEST PUSH2 0x179 JUMP JUMPDEST STOP JUMPDEST PUSH1 0x0 DUP1 SLOAD PUSH1 0xA SUB PUSH2 0x83 JUMPI PUSH2 0x7D PUSH2 0x1CF JUMP JUMPDEST POP PUSH1 0x1 SWAP1 JUMP JUMPDEST PUSH1 0x0 SLOAD PUSH1 0x1E SUB PUSH2 0x9B JUMPI PUSH2 0x95 PUSH2 0x1CF JUMP JUMPDEST POP PUSH1 0x3 SWAP1 JUMP JUMPDEST PUSH1 0x0 SLOAD PUSH1 0x32 SUB PUSH2 0xB3 JUMPI PUSH2 0xAD PUSH2 0x1CF JUMP JUMPDEST POP PUSH1 0x5 SWAP1 JUMP JUMPDEST PUSH1 0x0 SLOAD PUSH1 0x46 SUB PUSH2 0xCB JUMPI PUSH2 0xC5 PUSH2 0x1CF JUMP JUMPDEST POP PUSH1 0x7 SWAP1 JUMP JUMPDEST PUSH1 0x0 SLOAD PUSH1 0x5A SUB PUSH2 0xE3 JUMPI PUSH2 0xDD PUSH2 0x1CF JUMP JUMPDEST POP PUSH1 0x9 SWAP1 JUMP JUMPDEST PUSH1 0x0 SLOAD PUSH1 0x6E SUB PUSH2 0xFB JUMPI PUSH2 0xF5 PUSH2 0x1CF JUMP JUMPDEST POP PUSH1 0xB SWAP1 JUMP JUMPDEST PUSH1 0x0 SLOAD PUSH1 0x82 SUB PUSH2 0x113 JUMPI PUSH2 0x10D PUSH2 0x1CF JUMP JUMPDEST POP PUSH1 0xD SWAP1 JUMP JUMPDEST PUSH1 0x0 SLOAD PUSH1 0x96 SUB PUSH2 0x12B JUMPI PUSH2 0x125 PUSH2 0x1CF JUMP JUMPDEST POP PUSH1 0xF SWAP1 JUMP JUMPDEST PUSH1 0x0 SLOAD PUSH1 0xAA SUB PUSH2 0x143 JUMPI PUSH2 0x13D PUSH2 0x1CF JUMP JUMPDEST POP PUSH1 0x11 SWAP1 JUMP JUMPDEST PUSH1 0x0 SLOAD PUSH1 0xBE SUB PUSH2 0x15B JUMPI PUSH2 0x155 PUSH2 0x1CF JUMP JUMPDEST POP PUSH1 0x13 SWAP1 JUMP JUMPDEST PUSH1 0x0 SLOAD PUSH1 0xD2 SUB PUSH2 0x173 JUMPI PUSH2 0x16D PUSH2 0x1CF JUMP JUMPDEST POP PUSH1 0x15 SWAP1 JUMP JUMPDEST POP PUSH1 0x0 SWAP1 JUMP JUMPDEST DUP1 PUSH2 0x185 JUMPI PUSH1 0x0 PUSH2 0x188 JUMP JUMPDEST PUSH1 0x1 JUMPDEST PUSH1 0x0 SLOAD PUSH2 0x196 SWAP1 PUSH1 0x2 PUSH2 0x1FB JUMP JUMPDEST PUSH2 0x1A0 SWAP2 SWAP1 PUSH2 0x280 JUMP JUMPDEST PUSH1 0x0 SSTORE POP JUMP JUMPDEST PUSH1 0x0 PUSH1 0x20 DUP3 DUP5 SUB SLT ISZERO PUSH2 0x1B8 JUMPI PUSH1 0x0 DUP1 REVERT JUMPDEST DUP2 CALLDATALOAD DUP1 ISZERO ISZERO DUP2 EQ PUSH2 0x1C8 JUMPI PUSH1 0x0 DUP1 REVERT JUMPDEST SWAP4 SWAP3 POP POP POP JUMP JUMPDEST PUSH4 0x4E487B71 PUSH1 0xE0 SHL PUSH1 0x0 MSTORE PUSH1 0x1 PUSH1 0x4 MSTORE PUSH1 0x24 PUSH1 0x0 REVERT JUMPDEST PUSH4 0x4E487B71 PUSH1 0xE0 SHL PUSH1 0x0 MSTORE PUSH1 0x11 PUSH1 0x4 MSTORE PUSH1 0x24 PUSH1 0x0 REVERT JUMPDEST PUSH1 0x0 PUSH1 0x1 PUSH1 0x1 PUSH1 0xFF SHL SUB DUP2 DUP5 SGT DUP3 DUP5 SGT DUP1 DUP3 AND DUP7 DUP5 DIV DUP7 GT AND ISZERO PUSH2 0x221 JUMPI PUSH2 0x221 PUSH2 0x1E5 JUMP JUMPDEST PUSH1 0x1 PUSH1 0xFF SHL PUSH1 0x0 DUP8 SLT DUP3 DUP2 AND DUP8 DUP4 SDIV DUP10 SLT AND ISZERO PUSH2 0x240 JUMPI PUSH2 0x240 PUSH2 0x1E5 JUMP JUMPDEST PUSH1 0x0 DUP8 SLT SWAP3 POP DUP8 DUP3 SDIV DUP8 SLT DUP5 DUP5 AND AND ISZERO PUSH2 0x25C JUMPI PUSH2 0x25C PUSH2 0x1E5 JUMP JUMPDEST DUP8 DUP6 SDIV DUP8 SLT DUP2 DUP5 AND AND ISZERO PUSH2 0x272 JUMPI PUSH2 0x272 PUSH2 0x1E5 JUMP JUMPDEST POP POP POP SWAP3 SWAP1 SWAP4 MUL SWAP4 SWAP3 POP POP POP JUMP JUMPDEST PUSH1 0x0 DUP1 DUP3 SLT DUP1 ISZERO PUSH1 0x1 PUSH1 0x1 PUSH1 0xFF SHL SUB DUP5 SWAP1 SUB DUP6 SGT AND ISZERO PUSH2 0x2A2 JUMPI PUSH2 0x2A2 PUSH2 0x1E5 JUMP JUMPDEST PUSH1 0x1 PUSH1 0xFF SHL DUP4 SWAP1 SUB DUP5 SLT DUP2 AND ISZERO PUSH2 0x2BB JUMPI PUSH2 0x2BB PUSH2 0x1E5 JUMP JUMPDEST POP POP ADD SWAP1 JUMP INVALID LOG2 PUSH5 0x6970667358 0x22 SLT KECCAK256 SDIV 0xA8 PUSH13 0x72700D9CCB2087302E6D531DE1 GASPRICE EXTCODEHASH 0xAD NOT LOG2 SIGNEXTEND CALLDATALOAD CALLVALUE DUP1 0xD8 BALANCE 0xEF 0x4D 0x2B ISZERO 0xE7 PUSH5 0x736F6C6343 STOP ADDMOD 0xD STOP CALLER ",
          "linkReferences": {}
        },
        "methodIdentifiers": {
          "Bar()": "b0a378b0",
          "SetNext(bool)": "df5b7227"
        }
      }
    }
  }
}