{
  "src/ABC.sol": {
    "ABC": {
      "abi": [
        {
          "inputs": [],
          "name": "ABCD",
          "outputs": [
            {
              "internalType": "int256",
              "name": "y",
              "type": "int256"
            }
          ],
          "stateMutability": "view",
          "type": "function"
        },
        {
          "inputs": [
            {
              "internalType": "bool",
              "name": "b",
              "type": "bool"
            }
          ],
          "name": "SetNext",
          "outputs": [],
          "stateMutability": "nonpayable",
          "type": "function"
        }
      ],
      "userdoc": {},
      "devdoc": {},
      "evm": {
        "bytecode": {
          "object": "608060405234801561001057600080fd5b5061030f806100206000396000f3fe608060405234801561001057600080fd5b50600436106100365760003560e01c8063df5b72271461003b578063e88184ca14610050575b600080fd5b61004e6100493660046101be565b61006a565b005b610058610097565b60405190815260200160405180910390f35b80610076576000610079565b60015b6000546100879060026101fd565b6100919190610282565b60005550565b60008054601e036100b0576100aa6102c3565b50600390565b6000546032036100c8576100c26102c3565b50600590565b6000546046036100e0576100da6102c3565b50600790565b600054605a036100f8576100f26102c3565b50600990565b600054606e036101105761010a6102c3565b50600b90565b600054608203610128576101226102c3565b50600d90565b6000546096036101405761013a6102c3565b50600f90565b60005460aa03610158576101526102c3565b50601190565b60005460be036101705761016a6102c3565b50601390565b60005460d203610188576101826102c3565b50601590565b60005460e6036101a05761019a6102c3565b50601790565b60005460fa036101b8576101b26102c3565b50601990565b50600090565b6000602082840312156101d057600080fd5b813580151581146101e057600080fd5b9392505050565b634e487b7160e01b600052601160045260246000fd5b60006001600160ff1b0381841382841380821686840486111615610223576102236101e7565b600160ff1b6000871282811687830589121615610242576102426101e7565b6000871292508782058712848416161561025e5761025e6101e7565b87850587128184161615610274576102746101e7565b505050929093029392505050565b600080821280156001600160ff1b03849003851316156102a4576102a46101e7565b600160ff1b83900384128116156102bd576102bd6101e7565b50500190565b634e487b7160e01b600052600160045260246000fdfea2646970667358221220305228eb622814e45e19e7f9805025d83e14ec694dde980cb7b4fc268d9594a164736f6c634300080d0033",
          "opcodes": "PUSH1 0x80 PUSH1 0x40 MSTORE CALLVALUE DUP1 ISZERO PUSH2 0x10 JUMPI PUSH1 0x0 DUP1 REVERT JUMPDEST POP PUSH2 0x30F DUP1 PUSH2 0x20 PUSH1 0x0 CODECOPY PUSH1 0x0 RETURN INVALID PUSH1 0x80 PUSH1 0x40 MSTORE CALLVALUE DUP1 ISZERO PUSH2 0x10 JUMPI PUSH1 0x0 DUP1 REVERT JUMPDEST POP PUSH1 0x4 CALLDATASIZE LT PUSH2 0x36 JUMPI PUSH1 0x0 CALLDATALOAD PUSH1 0xE0 SHR DUP1 PUSH4 0xDF5B7227 EQ PUSH2 0x3B JUMPI DUP1 PUSH4 0xE88184CA EQ PUSH2 0x50 JUMPI JUMPDEST PUSH1 0x0 DUP1 REVERT JUMPDEST PUSH2 0x4E PUSH2 0x49 CALLDATASIZE PUSH1 0x4 PUSH2 0x1BE JUMP JUMPDEST PUSH2 0x6A JUMP JUMPDEST STOP JUMPDEST PUSH2 0x58 PUSH2 0x97 JUMP JUMPDEST PUSH1 0x40 MLOAD SWAP1 DUP2 MSTORE PUSH1 0x20 ADD PUSH1 0x40 MLOAD DUP1 SWAP2 SUB SWAP1 RETURN JUMPDEST DUP1 PUSH2 0x76 JUMPI PUSH1 0x0 PUSH2 0x79 JUMP JUMPDEST PUSH1 0x1 JUMPDEST PUSH1 0x0 SLOAD PUSH2 0x87 SWAP1 PUSH1 0x2 PUSH2 0x1FD JUMP JUMPDEST PUSH2 0x91 SWAP2 SWAP1 PUSH2 0x282 JUMP JUMPDEST PUSH1 0x0 SSTORE POP JUMP JUMPDEST PUSH1 0x0 DUP1 SLOAD PUSH1 0x1E SUB PUSH2 0xB0 JUMPI PUSH2 0xAA PUSH2 0x2C3 JUMP JUMPDEST POP PUSH1 0x3 SWAP1 JUMP JUMPDEST PUSH1 0x0 SLOAD PUSH1 0x32 SUB PUSH2 0xC8 JUMPI PUSH2 0xC2 PUSH2 0x2C3 JUMP JUMPDEST POP PUSH1 0x5 SWAP1 JUMP JUMPDEST PUSH1 0x0 SLOAD PUSH1 0x46 SUB PUSH2 0xE0 JUMPI PUSH2 0xDA PUSH2 0x2C3 JUMP JUMPDEST POP PUSH1 0x7 SWAP1 JUMP JUMPDEST PUSH1 0x0 SLOAD PUSH1 0x5A SUB PUSH2 0xF8 JUMPI PUSH2 0xF2 PUSH2 0x2C3 JUMP JUMPDEST POP PUSH1 0x9 SWAP1 JUMP JUMPDEST PUSH1 0x0 SLOAD PUSH1 0x6E SUB PUSH2 0x110 JUMPI PUSH2 0x10A PUSH2 0x2C3 JUMP JUMPDEST POP PUSH1 0xB SWAP1 JUMP JUMPDEST PUSH1 0x0 SLOAD PUSH1 0x82 SUB PUSH2 0x128 JUMPI PUSH2 0x122 PUSH2 0x2C3 JUMP JUMPDEST POP PUSH1 0xD SWAP1 JUMP JUMPDEST PUSH1 0x0 SLOAD PUSH1 0x96 SUB PUSH2 0x140 JUMPI PUSH2 0x13A PUSH2 0x2C3 JUMP JUMPDEST POP PUSH1 0xF SWAP1 JUMP JUMPDEST PUSH1 0x0 SLOAD PUSH1 0xAA SUB PUSH2 0x158 JUMPI PUSH2 0x152 PUSH2 0x2C3 JUMP JUMPDEST POP PUSH1 0x11 SWAP1 JUMP JUMPDEST PUSH1 0x0 SLOAD PUSH1 0xBE SUB PUSH2 0x170 JUMPI PUSH2 0x16A PUSH2 0x2C3 JUMP JUMPDEST POP PUSH1 0x13 SWAP1 JUMP JUMPDEST PUSH1 0x0 SLOAD PUSH1 0xD2 SUB PUSH2 0x188 JUMPI PUSH2 0x182 PUSH2 0x2C3 JUMP JUMPDEST POP PUSH1 0x15 SWAP1 JUMP JUMPDEST PUSH1 0x0 SLOAD PUSH1 0xE6 SUB PUSH2 0x1A0 JUMPI PUSH2 0x19A PUSH2 0x2C3 JUMP JUMPDEST POP PUSH1 0x17 SWAP1 JUMP JUMPDEST PUSH1 0x0 SLOAD PUSH1 0xFA SUB PUSH2 0x1B8 JUMPI PUSH2 0x1B2 PUSH2 0x2C3 JUMP JUMPDEST POP PUSH1 0x19 SWAP1 JUMP JUMPDEST POP PUSH1 0x0 SWAP1 JUMP JUMPDEST PUSH1 0x0 PUSH1 0x20 DUP3 DUP5 SUB SLT ISZERO PUSH2 0x1D0 JUMPI PUSH1 0x0 DUP1 REVERT JUMPDEST DUP2 CALLDATALOAD DUP1 ISZERO ISZERO DUP2 EQ PUSH2 0x1E0 JUMPI PUSH1 0x0 DUP1 REVERT JUMPDEST SWAP4 SWAP3 POP POP POP JUMP JUMPDEST PUSH4 0x4E487B71 PUSH1 0xE0 SHL PUSH1 0x0 MSTORE PUSH1 0x11 PUSH1 0x4 MSTORE PUSH1 0x24 PUSH1 0x0 REVERT JUMPDEST PUSH1 0x0 PUSH1 0x1 PUSH1 0x1 PUSH1 0xFF SHL SUB DUP2 DUP5 SGT DUP3 DUP5 SGT DUP1 DUP3 AND DUP7 DUP5 DIV DUP7 GT AND ISZERO PUSH2 0x223 JUMPI PUSH2 0x223 PUSH2 0x1E7 JUMP JUMPDEST PUSH1 0x1 PUSH1 0xFF SHL PUSH1 0x0 DUP8 SLT DUP3 DUP2 AND DUP8 DUP4 SDIV DUP10 SLT AND ISZERO PUSH2 0x242 JUMPI PUSH2 0x242 PUSH2 0x1E7 JUMP JUMPDEST PUSH1 0x0 DUP8 SLT SWAP3 POP DUP8 DUP3 SDIV DUP8 SLT DUP5 DUP5 AND AND ISZERO PUSH2 0x25E JUMPI PUSH2 0x25E PUSH2 0x1E7 JUMP JUMPDEST DUP8 DUP6 SDIV DUP8 SLT DUP2 DUP5 AND AND ISZERO PUSH2 0x274 JUMPI PUSH2 0x274 PUSH2 0x1E7 JUMP JUMPDEST POP POP POP SWAP3 SWAP1 SWAP4 MUL SWAP4 SWAP3 POP POP POP JUMP JUMPDEST PUSH1 0x0 DUP1 DUP3 SLT DUP1 ISZERO PUSH1 0x1 PUSH1 0x1 PUSH1 0xFF SHL SUB DUP5 SWAP1 SUB DUP6 SGT AND ISZERO PUSH2 0x2A4 JUMPI PUSH2 0x2A4 PUSH2 0x1E7 JUMP JUMPDEST PUSH1 0x1 PUSH1 0xFF SHL DUP4 SWAP1 SUB DUP5 SLT DUP2 AND ISZERO PUSH2 0x2BD JUMPI PUSH2 0x2BD PUSH2 0x1E7 JUMP JUMPDEST POP POP ADD SWAP1 JUMP JUMPDEST PUSH4 0x4E487B71 PUSH1 0xE0 SHL PUSH1 0x0 MSTORE PUSH1 0x1 PUSH1 0x4 MSTORE PUSH1 0x24 PUSH1 0x0 REVERT INVALID LOG2 PUSH5 0x6970667358 0x22 SLT KECCAK256 ADDRESS MSTORE 0x28 0xEB PUSH3 0x2814E4 0x5E NOT 0xE7 0xF9 DUP1 POP 0x25 0xD8 RETURNDATACOPY EQ 0xEC PUSH10 0x4DDE980CB7B4FC268D95 SWAP5 LOG1 PUSH5 0x736F6C6343 STOP ADDMOD 0xD STOP CALLER ",
          "linkReferences": {}
        },
        "methodIdentifiers": {
          "ABCD()": "e88184ca",
          "SetNext(bool)": "df5b7227"
        }
      }
    }
  }
}